:020000040000FA
:0600000004EF0AF01200FB
:020006001200E6
:0600080029EF00F01200D8
:02000E000000F0
:060010000000006D01007C
:0600180054EF00F012009D
:02001E000100DF
:0C0020000E00000084000000080000003A
:04002C000F0EC16E84
:10003000836A956A816A936A1200D068F16AD80E61
:10004000F06ED00EF26E0F0EC16E816A070E936EC7
:10005000120052EC06F000EE16F0140EE80403E372
:10006000EECFE4FFFBD700EE00F0160EE80403E34A
:10007000EECFE4FFFBD7E652F2A202D0CAD9F29249
:10008000E55200EE15F0160EE80403E3E5CFEDFFB0
:10009000FBD700EE29F0140EE80403E3E5CFEDFFF3
:1000A000FBD770EC06F01100D8CFE4FFE0CFE4FFFF
:1000B000E46E52EC06F000EE16F0140EE80403E3D2
:1000C000EECFE4FFFBD700EE00F0160EE80403E3EA
:1000D000EECFE4FFFBD7E652F2A402D0B4D9F294FB
:1000E000A1A202D0E2D9A192E55200EE15F0160EBF
:1000F000E80403E3E5CFEDFFFBD700EE29F0140E93
:10010000E80403E3E5CFEDFFFBD770EC06F0E55024
:10011000E5CFE0FFE5CFD8FF100030EC06F0E4ECCF
:1001200006F0050ED56E010EDB50D76EDF50D66E91
:10013000F28AD58E020EE15C02E2E16AE552E16EDE
:1001400035EF06F030EC06F0E4EC06F0F2A4FED752
:10015000F294010EDB50D76EDF50D66E020EE15CDA
:1001600002E2E16AE552E16E35EF06F09D90860EFF
:10017000CD6ECF6ACE6ACD80120033EC07F0DE6818
:10018000DD68A292A092980EB16E010EDB50B36EA4
:10019000DF50B26EA082B180020EE15C02E2E16A41
:1001A000E552E16E35EF06F030EC06F08484C5ECE4
:1001B00006F009E0D4EC06F001E3DB2A0800F55074
:1001C0004DEC06F0F4D735EF06F030EC06F0848401
:1001D000A1EC06F008E0DCEC06F001E3DB2AEF50CE
:1001E0004DEC06F0F5D735EF06F030EC06F08484E0
:1001F000FE0EDBCFE6FF37D8E55235EF06F030ECE8
:1002000006F08484EBEC06F0040ED8900132003244
:10021000E804FBE10F0E0016000E0116300E00245C
:100220004DEC06F084840F0EE76EFD0EDBCF00F080
:10023000FE0EE7500016016A300E00244DEC06F069
:1002400035EF06F030EC06F083EC06F0848437ECF2
:1002500007F0F2EC06F00A0EE15C02E2E16AE55218
:10026000E16E35EF06F030EC06F0FE0EDB50F00BE1
:10027000836E84828492FE0EDB38F00BF00B836E6B
:1002800084828492836A140EE66E12EC0AF0E552C0
:1002900035EF06F030EC06F08494FD0EDB0404E14B
:1002A000FE0EDB50800F07D0FD0EDB50020805E18B
:1002B000FE0EDB50C00F4DEC06F035EF06F08494D7
:1002C000010E4DEC06F0080EE66EE4EC09F0E55286
:1002D0001200956A836A9694969284948492200E72
:1002E0004DEC06F0200E4DEC06F0280E4DEC06F01D
:1002F0000F0E4DEC06F0060E4DEC06F05FEF01F030
:100300009D9A9D98AC6AAB6AAB88B06A190EAF6EC5
:10031000949C948EAC8AAB8E12009EAAFED79E9AB5
:10032000AE50120033EC07F0DF6A090EDF5C19E211
:100330009EAAFED79E9A010EAECFDBFFDB500A08C5
:1003400003E0010EDB5005E1DF503FEC06F0EF6A01
:1003500008D0DF503FEC06F0010EDBCFEFFFDF2AC5
:10036000E4D7DF50006E020EE15C02E2E16AE55282
:10037000E16E005035EF06F030EC06F0ACA2FED78F
:10038000FE0EDB50AD6E35EF06F030EC06F0C5EC3E
:1003900006F00AE0ACA2FED7D4EC06F001E3DB2ABB
:1003A0000800F550AD6EF3D735EF06F030EC06F0EF
:1003B000A1EC06F009E0ACA2FED7DCEC06F001E30C
:1003C000DB2AEF50AD6EF4D735EF06F030EC06F0D7
:1003D00083EC06F037EC07F0E9DFE552E5520A0E50
:1003E000E15C02E2E16AE552E16E35EF06F0CB68CE
:1003F000070ECA6E82949494BE683F0EBD6E1200C2
:10040000CB68070ECA6E82929492BB683F0EBA6E9A
:1004100012000001885102E0000E01D0010E886F29
:100420004EDF0001885102E0A2D807D0D59EB190DE
:10043000700EE66E120E39EC06F0C80EE66EE4ECB5
:1004400009F0E55212008150800B01E0010E006EB0
:100450008150800B01E0010E005C02E1000E01D032
:10046000010E84C0E6FF85C0E6FF86C0E6FF87C0B8
:10047000E6FFC8D9E552E552E552E5527F0E00018C
:1004800084190DE1510E85190AE1010E861907E163
:10049000875105E1846B856B866B876B1200842B1B
:1004A000000E852386238723120033EC07F0DE6AD3
:1004B000DD6ADECF00F0DDCF01F0000101508B19C5
:1004C000E8AE02D08B3504D08A51005C8B510158C4
:1004D0001CE2DECFE9FFDDCFEAFFB6EC06F0845187
:1004E000EE180EE18551EE180BE18651EE1808E189
:1004F0008751EE1805E104E189C0E6FF3EDBE552D5
:10050000DF2A010ED6E3DB2AD4D7020EE15C02E239
:10051000E16AE552E16EA9D389DDDBDE670EE66EA6
:10052000120E04EC07F0ECDE62DF6ADF86DD9386F4
:100530009388938A700EE66E120EE66E35DEE552F3
:10054000E55200018851FDE181B605D0700E896F3A
:10055000E66E13DBF5D781B802D06D0E03D081BAF9
:10056000F0D7670E896FE66E08DBE552EAD778DBD5
:10057000050EE126320EF36E040EF3CFDBFF9FDE95
:10058000590EE66E120E75DB9B0EDEDB280E3CEC80
:1005900007F09B0ED9DB48DB92DE4E0EE66E120EA4
:1005A00068DB0CEC07F08BDE420EE66E120E61DBB0
:1005B000D0DBD7DBF2EC06F012EC07F01CC084F0C5
:1005C0001DC085F01EC086F01FC087F0F7EC06F056
:1005D000340EE66E120E4DDBA0DEE76E040EE7CFA2
:1005E000DBFFDB50D00F00018A6F8B6B800B01E0CB
:1005F0008B698AC0E6FF8BC0E6FF24DEE552E55238
:1006000048EC07F0A6DB89DE0001896F2B0EE66E51
:10061000120E2FDB89C0E6FFE8DDE552E8DB200E95
:10062000E66E120E26DB020EDB6A030EDB6A020E9A
:10063000DBCF00F0030EDBCF01F0000101508B197E
:10064000E8AE02D08B3504D08A51005C8B51015842
:1006500039E2E2DBD950020FE96EDACFEAFFEE5061
:10066000ED1001E12CDEDEDB1CC000F01DC001F04E
:100670001EC002F01FC003F0020EDBCFE9FF030E25
:10068000DBCFEAFF73DB1CC0EEFF01C0EEFF02C050
:10069000EEFF03C0EEFFD950020FE96EDACFEAFF9A
:1006A000020EEE1803E1ED5001E153DB5ADB9ADB59
:1006B0001E0EE66E120EDDDA020EDB2A030EB7E323
:1006C000DB2AB5D794DB130EE66E120E9DDB090E06
:1006D000E66E120ECEDA21DD50DD050EE15C02E29F
:1006E000E16AE552E16EC1D2BBDA040EE12629DBF4
:1006F000D00F0A6E0B6A0C6A0AAE02D00B680C6847
:100700004DDB0AC01DF00BC01EF00CC01FF0CAEC80
:1007100007F01AC00AF01BC00BF01CC00CF0010E51
:10072000B0DB0D6E0E6A0DBE0E68100E0E02F3CF1A
:100730000EF00E0E0D02F3500E26100E0D02F3CF2A
:100740000DF0F4500E260F6A0EBE0F680A500D24ED
:10075000076E0B500E20086E0C500F20096E030E12
:1007600090DB106E116A10BE1168580E1102F3CFA3
:1007700011F0020E1002F3501126580E1002F3CFA2
:1007800010F0F4501126126A11BE1268075010249E
:10079000046E08501120056E09501220066E040EDA
:1007A00070DB3C0DF3CF13F0146A156A13AE02D060
:1007B0001468156804501324006E05501420016E4F
:1007C00006501520026E036A02BE036800C0DFFFF8
:1007D000010E01C0DBFF020E02C0DBFF030E03C0EF
:1007E000DBFFDECF1CF0DECF1DF0DECF1EF0DDCF55
:1007F0001FF0DD52DD52040EE15C02E2E16AE552D7
:10080000E16E33D22DDA180EE12659DD020EE66EC6
:10081000040EE66E3FDDE552E55215DAA00E216EBC
:100820008C0E226EAEDA1CC0DEFF1DC0DEFF1EC0C5
:10083000DEFF1FC0DDFFDD52DD52D9CFE9FFDACF89
:10084000EAFFEECF04F0EECF05F0EECF06F0EFCFEB
:1008500007F0A00E216E8C0EDBDA100E216E0E0E4C
:10086000226E8FDA040E1CC0DBFF050E1DC0DBFFFD
:10087000060E1EC0DBFF070E1FC0DBFF040EDBCF22
:1008800004F0050EDBCF05F0060EDBCF06F0070EF9
:10089000DBCF07F0100E216E0E0EBADA580E216E65
:1008A000020E226E6EDA080E1CC0DBFF090E1DC0A0
:1008B000DBFF0A0E1EC0DBFF0B0E1FC0DBFF080EA6
:1008C000DBCF04F0090EDBCF05F00A0EDBCF06F01C
:1008D0000B0EDBCF07F0580E216E020E99DA3C0E9C
:1008E000216E226A4EDA0C0E1CC0DBFF0D0E1DC0FD
:1008F000DBFF0E0E1EC0DBFF0F0E1FC0DBFF0C0E5A
:10090000DBCF04F00D0EDBCF05F00E0EDBCF06F0D3
:100910000F0EDBCF07F03C0E216E226A47D993D928
:100920000A0E216E226A2DDA100E1CC0DBFF110E9A
:100930001DC0DBFF120E1EC0DBFF130E1FC0DBFF4E
:10094000100EDBCF04F0110EDBCF05F0120EDBCF63
:1009500006F0130EDBCF07F00A0E216E226A26D9AD
:1009600066DA140EEECFDBFF150EEECFDBFF160EB0
:10097000EECFDBFF170EEECFDBFF300E006E016A0D
:10098000026A036AD9CFE9FF80DA040F35DA080F6B
:10099000E96E7BDA0C0F30DA100FE96E76DA140F9D
:1009A000E96E32D9180EE15C02E2E16AE552E16ECD
:1009B0005CD156D9130EE1260EDA026AEFD900C0D7
:1009C0001DF001C01EF002C01FF04BEC07F01DC06F
:1009D00000F01EC001F01FC002F0070E1DC0DBFFBB
:1009E000080E1EC0DBFFFD0EDBCF03F0FE0EDBCFDB
:1009F00004F0056A070EDBCF06F0080EDBCF07F028
:100A0000086ACCD906C01DF007C01EF008C01FF050
:100A1000CAEC07F01AC006F01BC007F01CC008F0B3
:100A20001A50035C006E1B500458016E1C50055890
:100A3000026E04DA100E006E0E0E016E27D9090E3A
:100A40001EC0DBFF0A0E43D9100E1E6E0E0E1F6E67
:100A5000090EDBCF23F00A0EEAD8580E006E020E04
:100A6000016E14D90B0E1EC0DBFF0C0E30D9580ED0
:100A70001E6E020E1F6E0B0EDBCF23F00C0ED7D8AE
:100A80003C0E006E016A02D90D0E1EC0DBFF0E0E79
:100A90001ED93C0E1E6E1F6A0D0EDBCF23F00E0E0C
:100AA000C6D80A0E006E016AF1D80F0E1EC0DBFF19
:100AB000100E0DD90A0E1E6E1F6A0F0EDBCF23F02B
:100AC000100EB5D8C2D9110E1EC0DBFF120E1FC00A
:100AD000DBFF070EDBCF00F0080EDBCF01F0300E9E
:100AE0000024DF6E300EE76E090EDBCF00F00A0E39
:100AF00021D9010E00C0DBFF3A0EF36E020EF3CFD8
:100B0000DBFF300EE76E0B0EDBCF00F00C0E12D9C0
:100B1000030E00C0DBFF300EE76E0D0EDBCF00F0E2
:100B20000E0E08D9040E00C0DBFF200EF36E050E7A
:100B3000F3CFDBFF300EE76E0F0EDBCF00F0100EB1
:100B4000F9D8060E00C0DBFF300EE76E110EDBCFCA
:100B500000F0120EEFD8070E00C0DBFFD9CF00F077
:100B6000DACF01F0D9CFF3FFDACFF4FF130EE15C57
:100B700002E2E16AE552E16E78D072D85FEC01F0F2
:100B8000F80EE66E110E75D8FE0EDB50670A05E012
:100B90000A0A06E1690EBE6E01D0BE6A9B0E02D043
:100BA0009B0EBE6ED1D874D9BE685FD0236A246A0A
:100BB00004C01CF005C01DF006C01EF007C01FF0E9
:100BC0003EEC09F018C004F019C005F01AC006F098
:100BD0001BC007F02CD91850EE5C006E1950EE586F
:100BE000016E1A50EE58026E1B50EE58036EFB0E4B
:100BF00000C0DBFFFC0E01C0DBFFFD0E02C0DBFF0F
:100C0000FE0E03C0DBFF1200DACFEAFFEE50002633
:100C1000EE500122EE500222EE5003220050E66E0A
:100C2000F5EC00F0E5521200C80E3CEF07F0DBCF08
:100C300024F0ACEC07F01C50025C006E1D50035811
:100C4000016E1EEF07F0FB0EDBCF1CF0FC0EDBCFBE
:100C50001DF0FD0EDBCF1EF0FE0EDBCF1FF01200ED
:100C6000D9CFE6FFE1CFD9FF1200E552E7CFD9FF98
:100C70001200E66ED4EC00F0E552E5521200E76E89
:100C8000EBD8E750E926000EEA221200DED800C0B9
:100C900023F001C024F0CEEF09F0E66E33EC01F052
:100CA000E5521200DACFE4FFE2CFDAFFE9CFE4FF4A
:100CB000EACFE4FFF6CFE4FFF7CFE4FFF5CFE4FFA0
:100CC000F3CFE4FFF4CFE4FFFACFE4FF12001FC03C
:100CD000DBFFFD0EDBCF02F0FE0EDBCF03F01200D8
:100CE000E5CFFAFFE5CFF4FFE5CFF3FFE5CFF5FF62
:100CF000E5CFF7FFE5CFF6FFE5CFEAFFE5CFE9FF68
:100D0000E5CFDAFF12000A0EE126B1D8FD0EDBCFE7
:100D1000E6FFFE0EDBCFE6FF13EC08F0E552E552EE
:100D2000E552E5521200300E006E016A026A036A53
:100D3000D9501200DBCF01F0E7500026000E01224F
:100D400012008AD8EF501200BB6E280E95D8BB68EF
:100D50001200020EE66EE66A4AEC01F0E552E55238
:100D60001200700EE66E000EE66E1200D890E936A4
:100D7000EA36D890E936EA36600EE926000EEA2215
:100D80001200236A246A78EF07F0FD0EDBCFF6FF2E
:100D9000FE0EDBCFF7FF0800F5501200A00E226E0A
:100DA0008C0E236E246A1200FD0EDBCFF6FFDB2AC9
:100DB000FE0EDBCFF7FF1200FD0EDBCFE9FFDB2AD3
:100DC000FE0EDBCFEAFF1200020EE126DB0EDE6E26
:100DD0000B0EDD6E1200FD0EDBCF00F0FE0EDBCF42
:100DE00001F01200E5EC00F0E552E552120050D897
:100DF0001BDF1ADF5FEF01F0E96E06DF070EE66E1C
:100E0000120E37DF93EF06F034DF42D85FEF01F0C8
:100E1000226ECCDE23EF06F0A4DF92EC01F0E55267
:100E2000E55212009EDF60DCE552E5521200D95017
:100E3000FB0FE96EFF0EDA20EA6E1200FD0E00C015
:100E4000DBFFFE0E01C0DBFF1200FD0EDBCF1EF04C
:100E5000FE0EDBCF1FF01200FD0EDBCFE9FFFE0E12
:100E6000DBCFEAFF1200FCDE020EE1261200D9CF32
:100E7000E6FFDACFE6FF1200E66EB7EC09F0E552C6
:100E80001200FDDEEF50D00F1200BEDE93EF06F031
:060E9000CBDE14EF06F0BA
:0A0E9600166A24AE56EF07F0226C36
:100EA000231E241EE86A23222422161E1FAE60EF92
:100EB00007F01D6C1E1E1F1EE86A1E221F22161E32
:100EC0009AEC09F01FBE73EF07F016AE000C1D6C14
:100ED0001E1E1F1EE86A1E221F22196C1A1E1B1ED0
:100EE0001A221B22000C16BE67EF07F01788FF0CB2
:100EF000166AE86A24AE85EF07F0216C221E231ED5
:100F0000241E222223222422161E1FAE90EF07F059
:100F10001C6C1D1E1E1E1F1E1D221E221F22161EA1
:100F200076EC09F01FBEA7EF07F016AE000C1C6CA4
:100F30001D1E1E1E1F1EE86A1D221E221F22186C67
:100F4000191E1A1E1B1E19221A221B22000C16BE65
:100F500097EF07F01788FF0C1EC028F01E502302E1
:100F6000F4CF1DF0F3CF1CF01F502402F4CF1FF07C
:100F7000F3CF1EF02302F3501D26F4501E22E86A20
:100F80001F2228502402F3501D26F4501E22E86A26
:100F90001F22000C1FC029F01EC028F01DC027F022
:100FA0001D502202F4CF1BF0F3CF1AF01E50230283
:100FB000F4CF1DF0F3CF1CF02202F3501B26F450A7
:100FC0001C22E86A1D2227502302F3501B26F450EE
:100FD0001C22E86A1D221F502202F3501C26F450E6
:100FE0001D221F5023021E6AE86A1E22F3501D268E
:100FF000F4501E2227502402F3501C26F4501D22C8
:101000001F6AE86A1E221F2228502402F3501D2660
:10101000F4501E22E86A1F2229502402F3501E2693
:06102000F4501F22000C39
:0A102600D9CFE6FFDACFE6FFFA0E9D
:10103000E3CFD9FFFB0EE3CFDAFFFD0EE35209E762
:101040002D0EDE6EFC0EE31EE32AFD0ED8B4E30681
:10105000E31EE652E652E652FD0EE124E76EFF0E75
:10106000E220E46EE652F70EE3CFE6FFF70EE3CFA1
:10107000E6FF83EC08F0F90EE124E96EFF0EE220B2
:10108000EA6E73EC08F00AE170EC08F009E173EC29
:1010900008F008E170EC08F007E108D07EEC08F0F9
:1010A00079EC08F07EEC08F079EC08F07EEC08F0C2
:1010B000DE6AF90EE126FF0EE222FF0EE3CFDAFF31
:1010C000E552FF0EE3CFD9FFE552FC0EE124E96EB5
:1010D000FF0EE220EA6EEECFF3FFEFCFF4FF120037
:1010E000EF380F0B1200EF500F0B02E1EE52D884D5
:1010F0001200EF380F0B300FDE6E1200EE500F0BA8
:10110000300FDE6E1200FC0EE3CFE9FFFD0EE3CFE1
:10111000EAFF100EE66EEE6AEE6AEF6AD890FD0EF8
:10112000E336FE0EE336ED36ED36EF36FF0EE30620
:1011300009E0A4EC08F0EE52A4EC08F0EE52A4ECA6
:1011400008F0EDD7E56E1200030EEF24E8B6EF6E5F
:0A115000300EEF24E8BEEF6E000C35
:06115A001E0EF66E000EF1
:10116000F76E000EF86E00010900F5507F6F090060
:10117000F550806F03E17F6701D03DD00900F55045
:101180007A6F0900F5507B6F0900F5507C6F0900FC
:101190000900F550E96E0900F550EA6E09000900F2
:1011A0000900F5507D6F0900F5507E6F09000900B8
:1011B000F6CF81F0F7CF82F0F8CF83F07AC0F6FF58
:1011C0007BC0F7FF7CC0F8FF00017D5302E17E5336
:1011D00007E00900F550EE6E7D07F8E27E07F9D7CB
:1011E00081C0F6FF82C0F7FF83C0F8FF00017F07D0
:0811F000000E805BBFD7120066
:0811F800486F7261206465205C
:10120000636F6D657221003A004D6F646F20415528
:10121000544F00436F6E6669677572656400200005
:10122000486F726172696F733A2000506F72636128
:101230006F3A20004E207265666569636F65733A88
:101240002000686F726120617475616C3A005761AB
:101250006974696E672E2E2E00436F6E666967751E
:10126000726163616F3A004155544F4649474900E6
:0C1270004D6F646F204D616E75616C0065
:04127C001C502102DF
:10128000F3CF18F0F4CF19F02202F3501926000E14
:10129000F4201A6E1C502302F3501A26000EF4207C
:1012A0001B6E1C502402F3501B261D502102F350CC
:1012B0001926F4501A22000E1B221D502202F35050
:1012C0001A26F4501B221D502302F3501B261E50D9
:1012D0002102F3501A26F4501B221E502202F35012
:0C12E0001B261F502102F3501B26120099
:0412EC001B6A1A6AF5
:1012F000196A186A200EE76ED8901C361D361E3605
:101300001F36183619361A361B362150185C2250F3
:10131000195823501A5824501B5809E32150185EBD
:101320002250195A23501A5A24501B5A1C2AE72EAD
:04133000E4D71200EC
:0C1334001B6A1A6A196A180EE76ED8903E
:101340001D361E361F3619361A361B362250195CCA
:1013500023501A5824501B5807E32250195E23507B
:0E1360001A5A24501B5A1D2AE72EEAD71200F3
:02136E00FF0E70
:10137000E3502B6EEF0E01D0F30EE76EE72EBEEFBB
:1013800009F00C0E2A6EE76AE72EC4EF09F02A2E48
:0C139000C3EF09F02B2EBCEF09F0120097
:04139C001B6A1A6A44
:1013A000100EE76ED8901E361F361A361B362350A5
:1013B0001A5C24501B5805E323501A5E24501B5A14
:0813C0001E2AE72EF0D71200EF
:0813C800FF0EE3502B6E480EEE
:1013D00001D04C0EE76EE72EFED7E76AE72EFED768
:0813E0002B2EF7D700001200CC
:0813E800000EF36E00EE00F0B0
:1013F000080E01D81200EA6002D0EE6AFCD7F35062
:08140000E9601200EE6AFCD75E
:0814080013EE00F023EE00F0EA
:10141000F86A179CADEC08F003EC00F08CEC02F0DD
:04142000FBD71200E4
:0C142400FF0EE350E84E1200000000D064
:0A14300000D000D0E82EFAD7120019
:020000040030CA
:0100000039C6
:010001000EF0
:0100020010ED
:0100030000FC
:010005008179
:010006008178
:010008000FE8
:01000900C036
:01000A000FE6
:01000B00E014
:01000C000FE4
:01000D0040B2
:00000001FF
